:100000000C9434000C943E000C943E000C943E0082
:100010000C943E000C943E000C943E000C943E0068
:100020000C943E000C943E000C943E000C943E0058
:100030000C943E000C943E000C943E000C943E0048
:100040000C943E000C943E000C943E000C943E0038
:100050000C943E000C943E000C943E000C943E0028
:100060000C943E000C943E0011241FBECFEFD8E04C
:10007000DEBFCDBF0E9440000C9467000C940000CE
:100080001092C50087E68093C40088E08093C10089
:1000900086E08093C20057E541E43CE429E494E41F
:1000A0008AE05093C6004093C6003093C600209368
:1000B000C6009093C6008093C6006FEF73EDE0E337
:1000C00061507040E040E1F700C00000EACFF894D2
:0200D000FFCF60
:00000001FF
